{
  "_format": "hh3-artifact-1",
  "contractName": "AccessControl",
  "sourceName": "contracts/AccessControl.sol",
  "abi": [
    {
      "inputs": [
        {
          "internalType": "address",
          "name": "registryAddress",
          "type": "address"
        }
      ],
      "stateMutability": "nonpayable",
      "type": "constructor"
    },
    {
      "anonymous": false,
      "inputs": [
        {
          "indexed": false,
          "internalType": "string",
          "name": "patientId",
          "type": "string"
        },
        {
          "indexed": false,
          "internalType": "address",
          "name": "doctorWallet",
          "type": "address"
        },
        {
          "indexed": false,
          "internalType": "uint256",
          "name": "time",
          "type": "uint256"
        }
      ],
      "name": "AccessGranted",
      "type": "event"
    },
    {
      "anonymous": false,
      "inputs": [
        {
          "indexed": false,
          "internalType": "string",
          "name": "patientId",
          "type": "string"
        },
        {
          "indexed": false,
          "internalType": "address",
          "name": "doctorWallet",
          "type": "address"
        },
        {
          "indexed": false,
          "internalType": "uint256",
          "name": "time",
          "type": "uint256"
        }
      ],
      "name": "AccessRevoked",
      "type": "event"
    },
    {
      "inputs": [],
      "name": "ROLE_DOCTOR",
      "outputs": [
        {
          "internalType": "uint8",
          "name": "",
          "type": "uint8"
        }
      ],
      "stateMutability": "view",
      "type": "function"
    },
    {
      "inputs": [],
      "name": "admin",
      "outputs": [
        {
          "internalType": "address",
          "name": "",
          "type": "address"
        }
      ],
      "stateMutability": "view",
      "type": "function"
    },
    {
      "inputs": [
        {
          "internalType": "string",
          "name": "",
          "type": "string"
        },
        {
          "internalType": "address",
          "name": "",
          "type": "address"
        }
      ],
      "name": "canAccess",
      "outputs": [
        {
          "internalType": "bool",
          "name": "",
          "type": "bool"
        }
      ],
      "stateMutability": "view",
      "type": "function"
    },
    {
      "inputs": [
        {
          "internalType": "string",
          "name": "patientId",
          "type": "string"
        },
        {
          "internalType": "address",
          "name": "doctorWallet",
          "type": "address"
        }
      ],
      "name": "checkAccess",
      "outputs": [
        {
          "internalType": "bool",
          "name": "",
          "type": "bool"
        }
      ],
      "stateMutability": "view",
      "type": "function"
    },
    {
      "inputs": [
        {
          "internalType": "uint256",
          "name": "index",
          "type": "uint256"
        }
      ],
      "name": "getLog",
      "outputs": [
        {
          "internalType": "string",
          "name": "patientId",
          "type": "string"
        },
        {
          "internalType": "address",
          "name": "doctorWallet",
          "type": "address"
        },
        {
          "internalType": "bool",
          "name": "allowed",
          "type": "bool"
        },
        {
          "internalType": "uint256",
          "name": "time",
          "type": "uint256"
        }
      ],
      "stateMutability": "view",
      "type": "function"
    },
    {
      "inputs": [],
      "name": "getLogCount",
      "outputs": [
        {
          "internalType": "uint256",
          "name": "",
          "type": "uint256"
        }
      ],
      "stateMutability": "view",
      "type": "function"
    },
    {
      "inputs": [
        {
          "internalType": "string",
          "name": "patientId",
          "type": "string"
        },
        {
          "internalType": "address",
          "name": "doctorWallet",
          "type": "address"
        }
      ],
      "name": "grantAccess",
      "outputs": [],
      "stateMutability": "nonpayable",
      "type": "function"
    },
    {
      "inputs": [
        {
          "internalType": "string",
          "name": "patientId",
          "type": "string"
        },
        {
          "internalType": "address",
          "name": "doctorWallet",
          "type": "address"
        }
      ],
      "name": "revokeAccess",
      "outputs": [],
      "stateMutability": "nonpayable",
      "type": "function"
    },
    {
      "inputs": [],
      "name": "userRegistry",
      "outputs": [
        {
          "internalType": "contract IUserRegistryForAccess",
          "name": "",
          "type": "address"
        }
      ],
      "stateMutability": "view",
      "type": "function"
    }
  ],
  "bytecode": "0x608060405234801561000f575f80fd5b50604051610c6e380380610c6e83398101604081905261002e91610060565b5f8054336001600160a01b031991821617909155600180549091166001600160a01b039290921691909117905561008d565b5f60208284031215610070575f80fd5b81516001600160a01b0381168114610086575f80fd5b9392505050565b610bd48061009a5f395ff3fe608060405234801561000f575f80fd5b5060043610610090575f3560e01c8063b7ef5baf11610063578063b7ef5baf1461011f578063dfe0b5fe1461015c578063f37c215e14610171578063f851a44014610184578063ffcb797214610196575f80fd5b80633206b2c61461009457806344a08b36146100c05780635c7460d6146100e3578063618033db1461010e575b5f80fd5b6100a76100a23660046107e4565b6101b0565b6040516100b794939291906107fb565b60405180910390f35b6100d36100ce366004610881565b6102c8565b60405190151581526020016100b7565b6001546100f6906001600160a01b031681565b6040516001600160a01b0390911681526020016100b7565b6003546040519081526020016100b7565b6100d361012d36600461090f565b81516020818401810180516002825292820194820194909420919093529091525f908152604090205460ff1681565b61016f61016a366004610881565b61030d565b005b61016f61017f366004610881565b610529565b5f546100f6906001600160a01b031681565b61019e600281565b60405160ff90911681526020016100b7565b60605f805f80600386815481106101c9576101c96109cb565b905f5260205f2090600302016040518060800160405290815f820180546101ef906109df565b80601f016020809104026020016040519081016040528092919081815260200182805461021b906109df565b80156102665780601f1061023d57610100808354040283529160200191610266565b820191905f5260205f20905b81548152906001019060200180831161024957829003601f168201915b505050918352505060018201546001600160a01b038116602080840191909152600160a01b90910460ff161515604080840191909152600290930154606092830152835190840151928401519390910151909991985091965090945092505050565b5f600284846040516102db929190610a17565b908152604080519182900360209081019092206001600160a01b0385165f908152925290205460ff1690509392505050565b5f546001600160a01b031633146103585760405162461bcd60e51b815260206004820152600a60248201526927b7363c9030b236b4b760b11b60448201526064015b60405180910390fd5b816103955760405162461bcd60e51b815260206004820152600d60248201526c50617469656e7420656d70747960981b604482015260640161034f565b6001600160a01b0381166103da5760405162461bcd60e51b815260206004820152600c60248201526b446f63746f7220656d70747960a01b604482015260640161034f565b5f600284846040516103ed929190610a17565b9081526040805191829003602090810183206001600160a01b0386165f908152908252829020805494151560ff199095169490941790935560a0601f86018490049093028201830190526080810184815260039282919087908790819085018382808284375f9201829052509385525050506001600160a01b038516602080840191909152604083018290524260609093019290925283546001810185559381522081519192600302019081906104a49082610a74565b5060208201516001820180546040808601511515600160a01b026001600160a81b03199092166001600160a01b0390941693909317179055606090920151600290910155517ff7eb47ecbc62e098414c8565b83461841e3ae69f64ad0da8609abefecaec86ad9061051c908590859085904290610b30565b60405180910390a1505050565b5f546001600160a01b0316331461056f5760405162461bcd60e51b815260206004820152600a60248201526927b7363c9030b236b4b760b11b604482015260640161034f565b816105ac5760405162461bcd60e51b815260206004820152600d60248201526c50617469656e7420656d70747960981b604482015260640161034f565b6001600160a01b0381166105f15760405162461bcd60e51b815260206004820152600c60248201526b446f63746f7220656d70747960a01b604482015260640161034f565b60015460405163a1f8c79f60e01b81526001600160a01b038381166004830152600260248301529091169063a1f8c79f90604401602060405180830381865afa158015610640573d5f803e3d5ffd5b505050506040513d601f19601f820116820180604052508101906106649190610b78565b61069d5760405162461bcd60e51b815260206004820152600a6024820152692737ba103237b1ba37b960b11b604482015260640161034f565b6001600284846040516106b1929190610a17565b9081526040805191829003602090810183206001600160a01b0386165f908152908252829020805494151560ff199095169490941790935560a0601f86018490049093028201830190526080810184815260039282919087908790819085018382808284375f9201829052509385525050506001600160a01b038516602080840191909152600160408401819052426060909401939093528454928301855593815292909220815191926003020190819061076c9082610a74565b5060208201516001820180546040808601511515600160a01b026001600160a81b03199092166001600160a01b0390941693909317179055606090920151600290910155517fcd5010f0cf521705dc993ca35e5b2fd59371fb9516f4c5dab9cd77693bbf92b09061051c908590859085904290610b30565b5f602082840312156107f4575f80fd5b5035919050565b608081525f85518060808401525f5b8181101561082757602081890181015160a086840101520161080a565b505f60a08285018101919091526001600160a01b039690961660208401529315156040830152506060810191909152601f909101601f19160101919050565b80356001600160a01b038116811461087c575f80fd5b919050565b5f805f60408486031215610893575f80fd5b833567ffffffffffffffff808211156108aa575f80fd5b818601915086601f8301126108bd575f80fd5b8135818111156108cb575f80fd5b8760208285010111156108dc575f80fd5b6020928301955093506108f29186019050610866565b90509250925092565b634e487b7160e01b5f52604160045260245ffd5b5f8060408385031215610920575f80fd5b823567ffffffffffffffff80821115610937575f80fd5b818501915085601f83011261094a575f80fd5b81358181111561095c5761095c6108fb565b604051601f8201601f19908116603f01168101908382118183101715610984576109846108fb565b8160405282815288602084870101111561099c575f80fd5b826020860160208301375f6020848301015280965050505050506109c260208401610866565b90509250929050565b634e487b7160e01b5f52603260045260245ffd5b600181811c908216806109f357607f821691505b602082108103610a1157634e487b7160e01b5f52602260045260245ffd5b50919050565b818382375f9101908152919050565b601f821115610a6f575f81815260208120601f850160051c81016020861015610a4c5750805b601f850160051c820191505b81811015610a6b57828155600101610a58565b5050505b505050565b815167ffffffffffffffff811115610a8e57610a8e6108fb565b610aa281610a9c84546109df565b84610a26565b602080601f831160018114610ad5575f8415610abe5750858301515b5f19600386901b1c1916600185901b178555610a6b565b5f85815260208120601f198616915b82811015610b0357888601518255948401946001909101908401610ae4565b5085821015610b2057878501515f19600388901b60f8161c191681555b5050505050600190811b01905550565b60608152836060820152838560808301375f60808583018101919091526001600160a01b039390931660208201526040810191909152601f909201601f191690910101919050565b5f60208284031215610b88575f80fd5b81518015158114610b97575f80fd5b939250505056fea2646970667358221220bc5182513c732f3a22fd641435a494739c8d3fb38cb1714947fc628d3644001864736f6c63430008140033",
  "linkReferences": {},
  "deployedLinkReferences": {},
  "immutableReferences": {},
  "inputSourceName": "project/contracts/AccessControl.sol",
  "buildInfoId": "solc-0_8_20-037d1ce34989e337619bd4f5ecf0b60087934321"
}