{
  "_format": "hh3-artifact-1",
  "contractName": "MedicalRecord",
  "sourceName": "contracts/MedicalRecord.sol",
  "abi": [
    {
      "inputs": [
        {
          "internalType": "address",
          "name": "accessControlAddress",
          "type": "address"
        }
      ],
      "stateMutability": "nonpayable",
      "type": "constructor"
    },
    {
      "anonymous": false,
      "inputs": [
        {
          "indexed": false,
          "internalType": "string",
          "name": "patientId",
          "type": "string"
        },
        {
          "indexed": false,
          "internalType": "address",
          "name": "doctorWallet",
          "type": "address"
        },
        {
          "indexed": false,
          "internalType": "string",
          "name": "recordHash",
          "type": "string"
        },
        {
          "indexed": false,
          "internalType": "uint256",
          "name": "time",
          "type": "uint256"
        }
      ],
      "name": "RecordHashAdded",
      "type": "event"
    },
    {
      "inputs": [],
      "name": "accessControl",
      "outputs": [
        {
          "internalType": "contract IAccessControlForRecord",
          "name": "",
          "type": "address"
        }
      ],
      "stateMutability": "view",
      "type": "function"
    },
    {
      "inputs": [
        {
          "internalType": "string",
          "name": "patientId",
          "type": "string"
        },
        {
          "internalType": "address",
          "name": "doctorWallet",
          "type": "address"
        },
        {
          "internalType": "string",
          "name": "recordHash",
          "type": "string"
        }
      ],
      "name": "addRecordHash",
      "outputs": [],
      "stateMutability": "nonpayable",
      "type": "function"
    },
    {
      "inputs": [],
      "name": "admin",
      "outputs": [
        {
          "internalType": "address",
          "name": "",
          "type": "address"
        }
      ],
      "stateMutability": "view",
      "type": "function"
    },
    {
      "inputs": [],
      "name": "getRecordCount",
      "outputs": [
        {
          "internalType": "uint256",
          "name": "",
          "type": "uint256"
        }
      ],
      "stateMutability": "view",
      "type": "function"
    },
    {
      "inputs": [
        {
          "internalType": "string",
          "name": "patientId",
          "type": "string"
        }
      ],
      "name": "getRecordHashes",
      "outputs": [
        {
          "internalType": "string[]",
          "name": "",
          "type": "string[]"
        }
      ],
      "stateMutability": "view",
      "type": "function"
    }
  ],
  "bytecode": "0x608060405234801561000f575f80fd5b50604051610a12380380610a1283398101604081905261002e91610060565b5f8054336001600160a01b031991821617909155600180549091166001600160a01b039290921691909117905561008d565b5f60208284031215610070575f80fd5b81516001600160a01b0381168114610086575f80fd5b9392505050565b6109788061009a5f395ff3fe608060405234801561000f575f80fd5b5060043610610055575f3560e01c806313007d55146100595780631aa5b81214610089578063878eb529146100a9578063ca267f28146100be578063f851a440146100cf575b5f80fd5b60015461006c906001600160a01b031681565b6040516001600160a01b0390911681526020015b60405180910390f35b61009c610097366004610506565b6100e1565b6040516100809190610545565b6100bc6100b73660046105d5565b6101d6565b005b600354604051908152602001610080565b5f5461006c906001600160a01b031681565b6060600283836040516100f592919061065f565b9081526020016040518091039020805480602002602001604051908101604052809291908181526020015f905b828210156101ca578382905f5260205f2001805461013f9061066e565b80601f016020809104026020016040519081016040528092919081815260200182805461016b9061066e565b80156101b65780601f1061018d576101008083540402835291602001916101b6565b820191905f5260205f20905b81548152906001019060200180831161019957829003601f168201915b505050505081526020019060010190610122565b50505050905092915050565b5f546001600160a01b031633146102215760405162461bcd60e51b815260206004820152600a60248201526927b7363c9030b236b4b760b11b60448201526064015b60405180910390fd5b8361025e5760405162461bcd60e51b815260206004820152600d60248201526c50617469656e7420656d70747960981b6044820152606401610218565b806102985760405162461bcd60e51b815260206004820152600a6024820152694861736820656d70747960b01b6044820152606401610218565b600154604051632250459b60e11b81526001600160a01b03909116906344a08b36906102cc908890889088906004016106ce565b602060405180830381865afa1580156102e7573d5f803e3d5ffd5b505050506040513d601f19601f8201168201806040525081019061030b91906106f9565b6103435760405162461bcd60e51b81526020600482015260096024820152684e6f2061636365737360b81b6044820152606401610218565b6002858560405161035592919061065f565b9081526040516020918190038201902080546001810182555f91825291902001610380828483610781565b506040805160a06020601f880181900402820181019092526080810186815260039282919089908990819085018382808284375f920191909152505050908252506001600160a01b03861660208083019190915260408051601f870183900483028101830182528681529201919086908690819084018382808284375f920182905250938552505042602093840152508354600181018555938152208151919260040201908190610431908261083d565b5060208201516001820180546001600160a01b0319166001600160a01b039092169190911790556040820151600282019061046c908261083d565b506060820151816003015550507f72ec861149a13ce602cf6b1872045a9b168d3a4a17068671e3c8cc5efe6256878585858585426040516104b2969594939291906108f9565b60405180910390a15050505050565b5f8083601f8401126104d1575f80fd5b50813567ffffffffffffffff8111156104e8575f80fd5b6020830191508360208285010111156104ff575f80fd5b9250929050565b5f8060208385031215610517575f80fd5b823567ffffffffffffffff81111561052d575f80fd5b610539858286016104c1565b90969095509350505050565b5f602080830181845280855180835260408601915060408160051b87010192508387015f805b838110156105c757888603603f1901855282518051808852835b818110156105a0578281018a01518982018b01528901610585565b508781018901849052601f01601f191690960187019550938601939186019160010161056b565b509398975050505050505050565b5f805f805f606086880312156105e9575f80fd5b853567ffffffffffffffff80821115610600575f80fd5b61060c89838a016104c1565b9097509550602088013591506001600160a01b038216821461062c575f80fd5b90935060408701359080821115610641575f80fd5b5061064e888289016104c1565b969995985093965092949392505050565b818382375f9101908152919050565b600181811c9082168061068257607f821691505b6020821081036106a057634e487b7160e01b5f52602260045260245ffd5b50919050565b81835281816020850137505f828201602090810191909152601f909101601f19169091010190565b604081525f6106e16040830185876106a6565b905060018060a01b0383166020830152949350505050565b5f60208284031215610709575f80fd5b81518015158114610718575f80fd5b9392505050565b634e487b7160e01b5f52604160045260245ffd5b601f82111561077c575f81815260208120601f850160051c810160208610156107595750805b601f850160051c820191505b8181101561077857828155600101610765565b5050505b505050565b67ffffffffffffffff8311156107995761079961071f565b6107ad836107a7835461066e565b83610733565b5f601f8411600181146107de575f85156107c75750838201355b5f19600387901b1c1916600186901b178355610836565b5f83815260209020601f19861690835b8281101561080e57868501358255602094850194600190920191016107ee565b508682101561082a575f1960f88860031b161c19848701351681555b505060018560011b0183555b5050505050565b815167ffffffffffffffff8111156108575761085761071f565b61086b81610865845461066e565b84610733565b602080601f83116001811461089e575f84156108875750858301515b5f19600386901b1c1916600185901b178555610778565b5f85815260208120601f198616915b828110156108cc578886015182559484019460019091019084016108ad565b50858210156108e957878501515f19600388901b60f8161c191681555b5050505050600190811b01905550565b608081525f61090c60808301888a6106a6565b6001600160a01b0387166020840152828103604084015261092e8186886106a6565b91505082606083015297965050505050505056fea264697066735822122020d468046905b6e819ec0b98b03179290a3337b5efe3e6d7a381a89a6f5e6bba64736f6c63430008140033",
  "linkReferences": {},
  "deployedLinkReferences": {},
  "immutableReferences": {},
  "inputSourceName": "project/contracts/MedicalRecord.sol",
  "buildInfoId": "solc-0_8_20-037d1ce34989e337619bd4f5ecf0b60087934321"
}