{
  "_format": "hh3-artifact-1",
  "contractName": "MedicalRecord",
  "sourceName": "contracts/MedicalRecord.sol",
  "abi": [
    {
      "inputs": [
        {
          "internalType": "address",
          "name": "accessControlAddress",
          "type": "address"
        }
      ],
      "stateMutability": "nonpayable",
      "type": "constructor"
    },
    {
      "anonymous": false,
      "inputs": [
        {
          "indexed": false,
          "internalType": "string",
          "name": "patientId",
          "type": "string"
        },
        {
          "indexed": false,
          "internalType": "address",
          "name": "doctorWallet",
          "type": "address"
        },
        {
          "indexed": false,
          "internalType": "string",
          "name": "recordHash",
          "type": "string"
        },
        {
          "indexed": false,
          "internalType": "uint256",
          "name": "createdAt",
          "type": "uint256"
        }
      ],
      "name": "RecordHashAdded",
      "type": "event"
    },
    {
      "inputs": [],
      "name": "accessControl",
      "outputs": [
        {
          "internalType": "contract IAccessControlForRecord",
          "name": "",
          "type": "address"
        }
      ],
      "stateMutability": "view",
      "type": "function"
    },
    {
      "inputs": [
        {
          "internalType": "string",
          "name": "patientId",
          "type": "string"
        },
        {
          "internalType": "address",
          "name": "doctorWallet",
          "type": "address"
        },
        {
          "internalType": "string",
          "name": "recordHash",
          "type": "string"
        }
      ],
      "name": "addRecordHash",
      "outputs": [],
      "stateMutability": "nonpayable",
      "type": "function"
    },
    {
      "inputs": [],
      "name": "admin",
      "outputs": [
        {
          "internalType": "address",
          "name": "",
          "type": "address"
        }
      ],
      "stateMutability": "view",
      "type": "function"
    },
    {
      "inputs": [
        {
          "internalType": "string",
          "name": "patientId",
          "type": "string"
        }
      ],
      "name": "getPatientRecord",
      "outputs": [
        {
          "components": [
            {
              "internalType": "string",
              "name": "recordHash",
              "type": "string"
            },
            {
              "internalType": "address",
              "name": "doctorWallet",
              "type": "address"
            },
            {
              "internalType": "uint256",
              "name": "createdAt",
              "type": "uint256"
            }
          ],
          "internalType": "struct MedicalRecord.PatientRecord[]",
          "name": "",
          "type": "tuple[]"
        }
      ],
      "stateMutability": "view",
      "type": "function"
    },
    {
      "inputs": [
        {
          "internalType": "string",
          "name": "patientId",
          "type": "string"
        },
        {
          "internalType": "uint256",
          "name": "index",
          "type": "uint256"
        }
      ],
      "name": "getRecordByIndex",
      "outputs": [
        {
          "internalType": "string",
          "name": "recordHash",
          "type": "string"
        },
        {
          "internalType": "address",
          "name": "doctorWallet",
          "type": "address"
        },
        {
          "internalType": "uint256",
          "name": "createdAt",
          "type": "uint256"
        }
      ],
      "stateMutability": "view",
      "type": "function"
    },
    {
      "inputs": [
        {
          "internalType": "string",
          "name": "patientId",
          "type": "string"
        }
      ],
      "name": "getRecordCount",
      "outputs": [
        {
          "internalType": "uint256",
          "name": "",
          "type": "uint256"
        }
      ],
      "stateMutability": "view",
      "type": "function"
    }
  ],
  "bytecode": "0x608060405234801561000f575f80fd5b50604051610c52380380610c5283398101604081905261002e91610060565b5f8054336001600160a01b031991821617909155600180549091166001600160a01b039290921691909117905561008d565b5f60208284031215610070575f80fd5b81516001600160a01b0381168114610086575f80fd5b9392505050565b610bb88061009a5f395ff3fe608060405234801561000f575f80fd5b5060043610610060575f3560e01c806311bd30a11461006457806313007d551461008d5780636319d03e146100b8578063878eb529146100da578063c3cef20a146100ef578063f851a44014610110575b5f80fd5b61007761007236600461073e565b610122565b60405161008491906107c0565b60405180910390f35b6001546100a0906001600160a01b031681565b6040516001600160a01b039091168152602001610084565b6100cb6100c6366004610848565b610251565b60405161008493929190610890565b6100ed6100e83660046108bd565b6103cd565b005b6101026100fd36600461073e565b6106ce565b604051908152602001610084565b5f546100a0906001600160a01b031681565b606060028383604051610136929190610947565b9081526020016040518091039020805480602002602001604051908101604052809291908181526020015f905b82821015610245578382905f5260205f2090600302016040518060600160405290815f8201805461019390610956565b80601f01602080910402602001604051908101604052809291908181526020018280546101bf90610956565b801561020a5780601f106101e15761010080835404028352916020019161020a565b820191905f5260205f20905b8154815290600101906020018083116101ed57829003601f168201915b50505091835250506001828101546001600160a01b031660208084019190915260029093015460409092019190915291835292019101610163565b50505050905092915050565b60605f8060028686604051610267929190610947565b9081526040519081900360200190205484106102bb5760405162461bcd60e51b815260206004820152600e60248201526d496e6465782069732077726f6e6760901b60448201526064015b60405180910390fd5b5f600287876040516102ce929190610947565b908152602001604051809103902085815481106102ed576102ed61098e565b905f5260205f2090600302016040518060600160405290815f8201805461031390610956565b80601f016020809104026020016040519081016040528092919081815260200182805461033f90610956565b801561038a5780601f106103615761010080835404028352916020019161038a565b820191905f5260205f20905b81548152906001019060200180831161036d57829003601f168201915b505050918352505060018201546001600160a01b031660208083019190915260029092015460409182015282519183015192015190999198509650945050505050565b5f546001600160a01b0316331461041f5760405162461bcd60e51b81526020600482015260166024820152754f6e6c792061646d696e2063616e20646f207468697360501b60448201526064016102b2565b836104625760405162461bcd60e51b815260206004820152601360248201527250617469656e7420696420697320656d70747960681b60448201526064016102b2565b6001600160a01b0383166104b15760405162461bcd60e51b8152602060048201526016602482015275446f63746f722077616c6c657420697320656d70747960501b60448201526064016102b2565b806104f55760405162461bcd60e51b81526020600482015260146024820152735265636f7264206861736820697320656d70747960601b60448201526064016102b2565b600154604051632250459b60e11b81525f916001600160a01b0316906344a08b3690610529908990899089906004016109ca565b602060405180830381865afa158015610544573d5f803e3d5ffd5b505050506040513d601f19601f8201168201806040525081019061056891906109f5565b90506001811515146105b35760405162461bcd60e51b8152602060048201526014602482015273446f63746f7220686173206e6f2061636365737360601b60448201526064016102b2565b6040805160806020601f86018190040282018101909252606081018481525f9282919087908790819085018382808284375f920191909152505050908252506001600160a01b0387166020820152426040918201525190915060029061061c9089908990610947565b9081526040516020918190038201902080546001810182555f918252919020825183926003029091019081906106529082610a7d565b5060208201516001820180546001600160a01b0319166001600160a01b03909216919091179055604091820151600290910155517f72ec861149a13ce602cf6b1872045a9b168d3a4a17068671e3c8cc5efe625687906106bd90899089908990899089904290610b39565b60405180910390a150505050505050565b5f600283836040516106e1929190610947565b90815260405190819003602001902054905092915050565b5f8083601f840112610709575f80fd5b50813567ffffffffffffffff811115610720575f80fd5b602083019150836020828501011115610737575f80fd5b9250929050565b5f806020838503121561074f575f80fd5b823567ffffffffffffffff811115610765575f80fd5b610771858286016106f9565b90969095509350505050565b5f81518084525f5b818110156107a157602081850181015186830182015201610785565b505f602082860101526020601f19601f83011685010191505092915050565b5f6020808301818452808551808352604092508286019150828160051b8701018488015f5b8381101561083a57603f1989840301855281516060815181865261080b8287018261077d565b838b01516001600160a01b0316878c0152928901519589019590955250948701949250908601906001016107e5565b509098975050505050505050565b5f805f6040848603121561085a575f80fd5b833567ffffffffffffffff811115610870575f80fd5b61087c868287016106f9565b909790965060209590950135949350505050565b606081525f6108a2606083018661077d565b6001600160a01b039490941660208301525060400152919050565b5f805f805f606086880312156108d1575f80fd5b853567ffffffffffffffff808211156108e8575f80fd5b6108f489838a016106f9565b9097509550602088013591506001600160a01b0382168214610914575f80fd5b90935060408701359080821115610929575f80fd5b50610936888289016106f9565b969995985093965092949392505050565b818382375f9101908152919050565b600181811c9082168061096a57607f821691505b60208210810361098857634e487b7160e01b5f52602260045260245ffd5b50919050565b634e487b7160e01b5f52603260045260245ffd5b81835281816020850137505f828201602090810191909152601f909101601f19169091010190565b604081525f6109dd6040830185876109a2565b905060018060a01b0383166020830152949350505050565b5f60208284031215610a05575f80fd5b81518015158114610a14575f80fd5b9392505050565b634e487b7160e01b5f52604160045260245ffd5b601f821115610a78575f81815260208120601f850160051c81016020861015610a555750805b601f850160051c820191505b81811015610a7457828155600101610a61565b5050505b505050565b815167ffffffffffffffff811115610a9757610a97610a1b565b610aab81610aa58454610956565b84610a2f565b602080601f831160018114610ade575f8415610ac75750858301515b5f19600386901b1c1916600185901b178555610a74565b5f85815260208120601f198616915b82811015610b0c57888601518255948401946001909101908401610aed565b5085821015610b2957878501515f19600388901b60f8161c191681555b5050505050600190811b01905550565b608081525f610b4c60808301888a6109a2565b6001600160a01b03871660208401528281036040840152610b6e8186886109a2565b91505082606083015297965050505050505056fea264697066735822122013cf98f6e25e95b65e721cd608e2d568e0d5524143036694237d92db37f16e4664736f6c63430008140033",
  "linkReferences": {},
  "deployedLinkReferences": {},
  "immutableReferences": {},
  "inputSourceName": "project/contracts/MedicalRecord.sol",
  "buildInfoId": "solc-0_8_20-3f625fb87a7469cd738fd8f11a83afa05ac7eb96"
}