{
  "_format": "hh3-artifact-1",
  "contractName": "Payment",
  "sourceName": "contracts/Payment.sol",
  "abi": [
    {
      "inputs": [],
      "stateMutability": "nonpayable",
      "type": "constructor"
    },
    {
      "anonymous": false,
      "inputs": [
        {
          "indexed": false,
          "internalType": "string",
          "name": "invoiceId",
          "type": "string"
        },
        {
          "indexed": false,
          "internalType": "address",
          "name": "patientWallet",
          "type": "address"
        },
        {
          "indexed": false,
          "internalType": "uint256",
          "name": "amount",
          "type": "uint256"
        }
      ],
      "name": "InvoiceCreated",
      "type": "event"
    },
    {
      "anonymous": false,
      "inputs": [
        {
          "indexed": false,
          "internalType": "string",
          "name": "invoiceId",
          "type": "string"
        },
        {
          "indexed": false,
          "internalType": "address",
          "name": "patientWallet",
          "type": "address"
        },
        {
          "indexed": false,
          "internalType": "uint256",
          "name": "amount",
          "type": "uint256"
        },
        {
          "indexed": false,
          "internalType": "uint256",
          "name": "time",
          "type": "uint256"
        }
      ],
      "name": "InvoicePaid",
      "type": "event"
    },
    {
      "inputs": [],
      "name": "admin",
      "outputs": [
        {
          "internalType": "address",
          "name": "",
          "type": "address"
        }
      ],
      "stateMutability": "view",
      "type": "function"
    },
    {
      "inputs": [
        {
          "internalType": "string",
          "name": "invoiceId",
          "type": "string"
        },
        {
          "internalType": "address",
          "name": "patientWallet",
          "type": "address"
        },
        {
          "internalType": "uint256",
          "name": "amount",
          "type": "uint256"
        }
      ],
      "name": "createInvoice",
      "outputs": [],
      "stateMutability": "nonpayable",
      "type": "function"
    },
    {
      "inputs": [
        {
          "internalType": "string",
          "name": "",
          "type": "string"
        }
      ],
      "name": "invoices",
      "outputs": [
        {
          "internalType": "address",
          "name": "patientWallet",
          "type": "address"
        },
        {
          "internalType": "uint256",
          "name": "amount",
          "type": "uint256"
        },
        {
          "internalType": "bool",
          "name": "paid",
          "type": "bool"
        }
      ],
      "stateMutability": "view",
      "type": "function"
    },
    {
      "inputs": [
        {
          "internalType": "string",
          "name": "invoiceId",
          "type": "string"
        }
      ],
      "name": "payInvoice",
      "outputs": [],
      "stateMutability": "payable",
      "type": "function"
    },
    {
      "inputs": [],
      "name": "withdraw",
      "outputs": [],
      "stateMutability": "nonpayable",
      "type": "function"
    }
  ],
  "bytecode": "0x608060405234801561000f575f80fd5b505f80546001600160a01b031916331790556107cb8061002e5f395ff3fe608060405260043610610049575f3560e01c80633ccfd60b1461004d5780637c9495b2146100635780639e33922214610076578063cf4b8ac814610095578063f851a44014610118575b5f80fd5b348015610058575f80fd5b5061006161014e565b005b610061610071366004610594565b6101d3565b348015610081575f80fd5b506100616100903660046105d3565b610360565b3480156100a0575f80fd5b506100ec6100af36600461064b565b8051602081830181018051600180835293830192909401919091209290528154908201546002909201546001600160a01b03909116919060ff1683565b604080516001600160a01b03909416845260208401929092521515908201526060015b60405180910390f35b348015610123575f80fd5b505f54610136906001600160a01b031681565b6040516001600160a01b03909116815260200161010f565b5f546001600160a01b031633146101995760405162461bcd60e51b815260206004820152600a60248201526927b7363c9030b236b4b760b11b60448201526064015b60405180910390fd5b5f80546040516001600160a01b03909116914780156108fc02929091818181858888f193505050501580156101d0573d5f803e3d5ffd5b50565b5f600183836040516101e69291906106f6565b908152602001604051809103902090505f81600101541161023d5760405162461bcd60e51b8152602060048201526011602482015270125b9d9bda58d9481b9bdd08199bdd5b99607a1b6044820152606401610190565b80546001600160a01b031633146102865760405162461bcd60e51b815260206004820152600d60248201526c15dc9bdb99c81c185d1a595b9d609a1b6044820152606401610190565b600281015460ff16156102ca5760405162461bcd60e51b815260206004820152600c60248201526b105b1c9958591e481c185a5960a21b6044820152606401610190565b8060010154341461030c5760405162461bcd60e51b815260206004820152600c60248201526b15dc9bdb99c8185b5bdd5b9d60a21b6044820152606401610190565b60028101805460ff191660011790556040517fabc3d9da50ac13f6d27d7f21277190acf308ea6206c3b22ff4b33e7a34e40bf490610353908590859033903490429061072d565b60405180910390a1505050565b5f546001600160a01b031633146103a65760405162461bcd60e51b815260206004820152600a60248201526927b7363c9030b236b4b760b11b6044820152606401610190565b6001600160a01b0382166103ec5760405162461bcd60e51b815260206004820152600d60248201526c50617469656e7420656d70747960981b6044820152606401610190565b5f811161042a5760405162461bcd60e51b815260206004820152600c60248201526b416d6f756e742077726f6e6760a01b6044820152606401610190565b6001848460405161043c9291906106f6565b9081526020016040518091039020600101545f1461048d5760405162461bcd60e51b815260206004820152600e60248201526d496e766f6963652065786973747360901b6044820152606401610190565b604080516060810182526001600160a01b0384168152602081018390525f8183015290516001906104c190879087906106f6565b9081526040805160209281900383018120845181546001600160a01b0319166001600160a01b039091161781559284015160018401559201516002909101805460ff19169115159190911790557ffefc2578dfbe8cb56885e1b29a067235bf8c8537bb7d2d2dc07d55ae797e2e7490610541908690869086908690610766565b60405180910390a150505050565b5f8083601f84011261055f575f80fd5b50813567ffffffffffffffff811115610576575f80fd5b60208301915083602082850101111561058d575f80fd5b9250929050565b5f80602083850312156105a5575f80fd5b823567ffffffffffffffff8111156105bb575f80fd5b6105c78582860161054f565b90969095509350505050565b5f805f80606085870312156105e6575f80fd5b843567ffffffffffffffff8111156105fc575f80fd5b6106088782880161054f565b90955093505060208501356001600160a01b0381168114610627575f80fd5b9396929550929360400135925050565b634e487b7160e01b5f52604160045260245ffd5b5f6020828403121561065b575f80fd5b813567ffffffffffffffff80821115610672575f80fd5b818401915084601f830112610685575f80fd5b81358181111561069757610697610637565b604051601f8201601f19908116603f011681019083821181831017156106bf576106bf610637565b816040528281528760208487010111156106d7575f80fd5b826020860160208301375f928101602001929092525095945050505050565b818382375f9101908152919050565b81835281816020850137505f828201602090810191909152601f909101601f19169091010190565b608081525f610740608083018789610705565b6001600160a01b0395909516602083015250604081019290925260609091015292915050565b606081525f610779606083018688610705565b6001600160a01b0394909416602083015250604001529291505056fea2646970667358221220530faac390c5d7bcc561d5528a6f50e5f63dcdbb3975df96c48daa18df7ba2e264736f6c63430008140033",
  "linkReferences": {},
  "deployedLinkReferences": {},
  "immutableReferences": {},
  "inputSourceName": "project/contracts/Payment.sol",
  "buildInfoId": "solc-0_8_20-037d1ce34989e337619bd4f5ecf0b60087934321"
}