{
  "_format": "hh3-artifact-1",
  "contractName": "UserRegistry",
  "sourceName": "contracts/UserRegistry.sol",
  "abi": [
    {
      "inputs": [],
      "stateMutability": "nonpayable",
      "type": "constructor"
    },
    {
      "anonymous": false,
      "inputs": [
        {
          "indexed": false,
          "internalType": "address",
          "name": "wallet",
          "type": "address"
        },
        {
          "indexed": false,
          "internalType": "string",
          "name": "userId",
          "type": "string"
        },
        {
          "indexed": false,
          "internalType": "uint8",
          "name": "role",
          "type": "uint8"
        }
      ],
      "name": "UserRegistered",
      "type": "event"
    },
    {
      "anonymous": false,
      "inputs": [
        {
          "indexed": false,
          "internalType": "address",
          "name": "wallet",
          "type": "address"
        },
        {
          "indexed": false,
          "internalType": "bool",
          "name": "active",
          "type": "bool"
        }
      ],
      "name": "UserStatusChanged",
      "type": "event"
    },
    {
      "inputs": [],
      "name": "ROLE_ADMIN",
      "outputs": [
        {
          "internalType": "uint8",
          "name": "",
          "type": "uint8"
        }
      ],
      "stateMutability": "view",
      "type": "function"
    },
    {
      "inputs": [],
      "name": "ROLE_DOCTOR",
      "outputs": [
        {
          "internalType": "uint8",
          "name": "",
          "type": "uint8"
        }
      ],
      "stateMutability": "view",
      "type": "function"
    },
    {
      "inputs": [],
      "name": "ROLE_NONE",
      "outputs": [
        {
          "internalType": "uint8",
          "name": "",
          "type": "uint8"
        }
      ],
      "stateMutability": "view",
      "type": "function"
    },
    {
      "inputs": [],
      "name": "ROLE_PATIENT",
      "outputs": [
        {
          "internalType": "uint8",
          "name": "",
          "type": "uint8"
        }
      ],
      "stateMutability": "view",
      "type": "function"
    },
    {
      "inputs": [],
      "name": "admin",
      "outputs": [
        {
          "internalType": "address",
          "name": "",
          "type": "address"
        }
      ],
      "stateMutability": "view",
      "type": "function"
    },
    {
      "inputs": [
        {
          "internalType": "address",
          "name": "wallet",
          "type": "address"
        }
      ],
      "name": "getUser",
      "outputs": [
        {
          "internalType": "string",
          "name": "userId",
          "type": "string"
        },
        {
          "internalType": "uint8",
          "name": "role",
          "type": "uint8"
        },
        {
          "internalType": "bool",
          "name": "active",
          "type": "bool"
        }
      ],
      "stateMutability": "view",
      "type": "function"
    },
    {
      "inputs": [
        {
          "internalType": "address",
          "name": "wallet",
          "type": "address"
        },
        {
          "internalType": "uint8",
          "name": "role",
          "type": "uint8"
        }
      ],
      "name": "isAuthorizedRole",
      "outputs": [
        {
          "internalType": "bool",
          "name": "",
          "type": "bool"
        }
      ],
      "stateMutability": "view",
      "type": "function"
    },
    {
      "inputs": [
        {
          "internalType": "address",
          "name": "wallet",
          "type": "address"
        },
        {
          "internalType": "string",
          "name": "userId",
          "type": "string"
        },
        {
          "internalType": "uint8",
          "name": "role",
          "type": "uint8"
        }
      ],
      "name": "registerUser",
      "outputs": [],
      "stateMutability": "nonpayable",
      "type": "function"
    },
    {
      "inputs": [
        {
          "internalType": "address",
          "name": "wallet",
          "type": "address"
        },
        {
          "internalType": "bool",
          "name": "active",
          "type": "bool"
        }
      ],
      "name": "setUserStatus",
      "outputs": [],
      "stateMutability": "nonpayable",
      "type": "function"
    }
  ],
  "bytecode": "0x608060405234801562000010575f80fd5b50335f806101000a81548173ffffffffffffffffffffffffffffffffffffffff021916908373ffffffffffffffffffffffffffffffffffffffff16021790555060405180606001604052806040518060400160405280600581526020017f41444d494e0000000000000000000000000000000000000000000000000000008152508152602001600360ff1681526020016001151581525060015f3373ffffffffffffffffffffffffffffffffffffffff1673ffffffffffffffffffffffffffffffffffffffff1681526020019081526020015f205f820151815f019081620000f99190620003a7565b506020820151816001015f6101000a81548160ff021916908360ff16021790555060408201518160010160016101000a81548160ff0219169083151502179055509050506200048b565b5f81519050919050565b7f4e487b71000000000000000000000000000000000000000000000000000000005f52604160045260245ffd5b7f4e487b71000000000000000000000000000000000000000000000000000000005f52602260045260245ffd5b5f6002820490506001821680620001bf57607f821691505b602082108103620001d557620001d46200017a565b5b50919050565b5f819050815f5260205f209050919050565b5f6020601f8301049050919050565b5f82821b905092915050565b5f60088302620002397fffffffffffffffffffffffffffffffffffffffffffffffffffffffffffffffff82620001fc565b620002458683620001fc565b95508019841693508086168417925050509392505050565b5f819050919050565b5f819050919050565b5f6200028f6200028962000283846200025d565b62000266565b6200025d565b9050919050565b5f819050919050565b620002aa836200026f565b620002c2620002b98262000296565b84845462000208565b825550505050565b5f90565b620002d8620002ca565b620002e58184846200029f565b505050565b5b818110156200030c57620003005f82620002ce565b600181019050620002eb565b5050565b601f8211156200035b576200032581620001db565b6200033084620001ed565b8101602085101562000340578190505b620003586200034f85620001ed565b830182620002ea565b50505b505050565b5f82821c905092915050565b5f6200037d5f198460080262000360565b1980831691505092915050565b5f6200039783836200036c565b9150826002028217905092915050565b620003b28262000143565b67ffffffffffffffff811115620003ce57620003cd6200014d565b5b620003da8254620001a7565b620003e782828562000310565b5f60209050601f8311600181146200041d575f841562000408578287015190505b6200041485826200038a565b86555062000483565b601f1984166200042d86620001db565b5f5b8281101562000456578489015182556001820191506020850194506020810190506200042f565b8683101562000476578489015162000472601f8916826200036c565b8355505b6001600288020188555050505b505050505050565b61112180620004995f395ff3fe608060405234801561000f575f80fd5b5060043610610091575f3560e01c8063a1f8c79f11610064578063a1f8c79f1461011d578063a801e4911461014d578063d391014b1461016b578063f851a44014610189578063ffcb7972146101a757610091565b806321eceff7146100955780636f77926b146100b157806377cc16e0146100e357806381efad2414610101575b5f80fd5b6100af60048036038101906100aa91906108c0565b6101c5565b005b6100cb60048036038101906100c691906108fe565b61037b565b6040516100da939291906109dd565b60405180910390f35b6100eb6104ac565b6040516100f89190610a19565b60405180910390f35b61011b60048036038101906101169190610abd565b6104b0565b005b61013760048036038101906101329190610b2e565b610743565b6040516101449190610b6c565b60405180910390f35b6101556107f7565b6040516101629190610a19565b60405180910390f35b6101736107fc565b6040516101809190610a19565b60405180910390f35b610191610801565b60405161019e9190610b94565b60405180910390f35b6101af610824565b6040516101bc9190610a19565b60405180910390f35b5f8054906101000a900473ffffffffffffffffffffffffffffffffffffffff1673ffffffffffffffffffffffffffffffffffffffff163373ffffffffffffffffffffffffffffffffffffffff1614610252576040517f08c379a000000000000000000000000000000000000000000000000000000000815260040161024990610bf7565b60405180910390fd5b5f60ff1660015f8473ffffffffffffffffffffffffffffffffffffffff1673ffffffffffffffffffffffffffffffffffffffff1681526020019081526020015f206001015f9054906101000a900460ff1660ff16036102e6576040517f08c379a00000000000000000000000000000000000000000000000000000000081526004016102dd90610c5f565b60405180910390fd5b8060015f8473ffffffffffffffffffffffffffffffffffffffff1673ffffffffffffffffffffffffffffffffffffffff1681526020019081526020015f2060010160016101000a81548160ff0219169083151502179055507fac6a98145b54adc0bf4a88140a58aa33ca5ddf35ac39fc3998947220aa1b230d828260405161036f929190610c7d565b60405180910390a15050565b60605f805f60015f8673ffffffffffffffffffffffffffffffffffffffff1673ffffffffffffffffffffffffffffffffffffffff1681526020019081526020015f206040518060600160405290815f820180546103d790610cd1565b80601f016020809104026020016040519081016040528092919081815260200182805461040390610cd1565b801561044e5780601f106104255761010080835404028352916020019161044e565b820191905f5260205f20905b81548152906001019060200180831161043157829003601f168201915b50505050508152602001600182015f9054906101000a900460ff1660ff1660ff1681526020016001820160019054906101000a900460ff1615151515815250509050805f015181602001518260400151935093509350509193909250565b5f81565b5f8054906101000a900473ffffffffffffffffffffffffffffffffffffffff1673ffffffffffffffffffffffffffffffffffffffff163373ffffffffffffffffffffffffffffffffffffffff161461053d576040517f08c379a000000000000000000000000000000000000000000000000000000000815260040161053490610bf7565b60405180910390fd5b5f73ffffffffffffffffffffffffffffffffffffffff168473ffffffffffffffffffffffffffffffffffffffff16036105ab576040517f08c379a00000000000000000000000000000000000000000000000000000000081526004016105a290610d4b565b60405180910390fd5b600160ff168160ff16101580156105c95750600360ff168160ff1611155b610608576040517f08c379a00000000000000000000000000000000000000000000000000000000081526004016105ff90610db3565b60405180910390fd5b604051806060016040528084848080601f0160208091040260200160405190810160405280939291908181526020018383808284375f81840152601f19601f8201169050808301925050505050505081526020018260ff1681526020016001151581525060015f8673ffffffffffffffffffffffffffffffffffffffff1673ffffffffffffffffffffffffffffffffffffffff1681526020019081526020015f205f820151815f0190816106bc9190610fa4565b506020820151816001015f6101000a81548160ff021916908360ff16021790555060408201518160010160016101000a81548160ff0219169083151502179055509050507fc2e5d5da58bd71d1a2d14cdef02a4256d971b728088f8190d067ccfbae3bd73e8484848460405161073594939291906110ad565b60405180910390a150505050565b5f60015f8473ffffffffffffffffffffffffffffffffffffffff1673ffffffffffffffffffffffffffffffffffffffff1681526020019081526020015f2060010160019054906101000a900460ff1680156107ef57508160ff1660015f8573ffffffffffffffffffffffffffffffffffffffff1673ffffffffffffffffffffffffffffffffffffffff1681526020019081526020015f206001015f9054906101000a900460ff1660ff16145b905092915050565b600181565b600381565b5f8054906101000a900473ffffffffffffffffffffffffffffffffffffffff1681565b600281565b5f80fd5b5f80fd5b5f73ffffffffffffffffffffffffffffffffffffffff82169050919050565b5f61085a82610831565b9050919050565b61086a81610850565b8114610874575f80fd5b50565b5f8135905061088581610861565b92915050565b5f8115159050919050565b61089f8161088b565b81146108a9575f80fd5b50565b5f813590506108ba81610896565b92915050565b5f80604083850312156108d6576108d5610829565b5b5f6108e385828601610877565b92505060206108f4858286016108ac565b9150509250929050565b5f6020828403121561091357610912610829565b5b5f61092084828501610877565b91505092915050565b5f81519050919050565b5f82825260208201905092915050565b5f5b83811015610960578082015181840152602081019050610945565b5f8484015250505050565b5f601f19601f8301169050919050565b5f61098582610929565b61098f8185610933565b935061099f818560208601610943565b6109a88161096b565b840191505092915050565b5f60ff82169050919050565b6109c8816109b3565b82525050565b6109d78161088b565b82525050565b5f6060820190508181035f8301526109f5818661097b565b9050610a0460208301856109bf565b610a1160408301846109ce565b949350505050565b5f602082019050610a2c5f8301846109bf565b92915050565b5f80fd5b5f80fd5b5f80fd5b5f8083601f840112610a5357610a52610a32565b5b8235905067ffffffffffffffff811115610a7057610a6f610a36565b5b602083019150836001820283011115610a8c57610a8b610a3a565b5b9250929050565b610a9c816109b3565b8114610aa6575f80fd5b50565b5f81359050610ab781610a93565b92915050565b5f805f8060608587031215610ad557610ad4610829565b5b5f610ae287828801610877565b945050602085013567ffffffffffffffff811115610b0357610b0261082d565b5b610b0f87828801610a3e565b93509350506040610b2287828801610aa9565b91505092959194509250565b5f8060408385031215610b4457610b43610829565b5b5f610b5185828601610877565b9250506020610b6285828601610aa9565b9150509250929050565b5f602082019050610b7f5f8301846109ce565b92915050565b610b8e81610850565b82525050565b5f602082019050610ba75f830184610b85565b92915050565b7f4f6e6c792061646d696e000000000000000000000000000000000000000000005f82015250565b5f610be1600a83610933565b9150610bec82610bad565b602082019050919050565b5f6020820190508181035f830152610c0e81610bd5565b9050919050565b7f55736572206e6f7420666f756e640000000000000000000000000000000000005f82015250565b5f610c49600e83610933565b9150610c5482610c15565b602082019050919050565b5f6020820190508181035f830152610c7681610c3d565b9050919050565b5f604082019050610c905f830185610b85565b610c9d60208301846109ce565b9392505050565b7f4e487b71000000000000000000000000000000000000000000000000000000005f52602260045260245ffd5b5f6002820490506001821680610ce857607f821691505b602082108103610cfb57610cfa610ca4565b5b50919050565b7f57616c6c657420656d70747900000000000000000000000000000000000000005f82015250565b5f610d35600c83610933565b9150610d4082610d01565b602082019050919050565b5f6020820190508181035f830152610d6281610d29565b9050919050565b7f526f6c652077726f6e67000000000000000000000000000000000000000000005f82015250565b5f610d9d600a83610933565b9150610da882610d69565b602082019050919050565b5f6020820190508181035f830152610dca81610d91565b9050919050565b7f4e487b71000000000000000000000000000000000000000000000000000000005f52604160045260245ffd5b5f819050815f5260205f209050919050565b5f6020601f8301049050919050565b5f82821b905092915050565b5f60088302610e5a7fffffffffffffffffffffffffffffffffffffffffffffffffffffffffffffffff82610e1f565b610e648683610e1f565b95508019841693508086168417925050509392505050565b5f819050919050565b5f819050919050565b5f610ea8610ea3610e9e84610e7c565b610e85565b610e7c565b9050919050565b5f819050919050565b610ec183610e8e565b610ed5610ecd82610eaf565b848454610e2b565b825550505050565b5f90565b610ee9610edd565b610ef4818484610eb8565b505050565b5b81811015610f1757610f0c5f82610ee1565b600181019050610efa565b5050565b601f821115610f5c57610f2d81610dfe565b610f3684610e10565b81016020851015610f45578190505b610f59610f5185610e10565b830182610ef9565b50505b505050565b5f82821c905092915050565b5f610f7c5f1984600802610f61565b1980831691505092915050565b5f610f948383610f6d565b9150826002028217905092915050565b610fad82610929565b67ffffffffffffffff811115610fc657610fc5610dd1565b5b610fd08254610cd1565b610fdb828285610f1b565b5f60209050601f83116001811461100c575f8415610ffa578287015190505b6110048582610f89565b86555061106b565b601f19841661101a86610dfe565b5f5b828110156110415784890151825560018201915060208501945060208101905061101c565b8683101561105e578489015161105a601f891682610f6d565b8355505b6001600288020188555050505b505050505050565b828183375f83830152505050565b5f61108c8385610933565b9350611099838584611073565b6110a28361096b565b840190509392505050565b5f6060820190506110c05f830187610b85565b81810360208301526110d3818587611081565b90506110e260408301846109bf565b9594505050505056fea2646970667358221220fe5101f8ddaffcdd5bc286d3f70b3c33063febb09c2ef7dfb07bfec67313e88564736f6c63430008140033",
  "linkReferences": {},
  "deployedLinkReferences": {},
  "immutableReferences": {},
  "inputSourceName": "project/contracts/UserRegistry.sol",
  "buildInfoId": "solc-0_8_20-86942afa71d45591c89cde8696b29bf95c3139e6"
}